{
  "contractName": "Voting",
  "abi": [
    {
      "inputs": [],
      "stateMutability": "nonpayable",
      "type": "constructor"
    },
    {
      "anonymous": false,
      "inputs": [],
      "name": "NewMovie",
      "type": "event"
    },
    {
      "anonymous": false,
      "inputs": [],
      "name": "Voted",
      "type": "event"
    },
    {
      "inputs": [],
      "name": "MAX_VOTES_PER_VOTER",
      "outputs": [
        {
          "internalType": "uint256",
          "name": "",
          "type": "uint256"
        }
      ],
      "stateMutability": "view",
      "type": "function",
      "constant": true
    },
    {
      "inputs": [
        {
          "internalType": "uint256",
          "name": "",
          "type": "uint256"
        }
      ],
      "name": "movies",
      "outputs": [
        {
          "internalType": "uint256",
          "name": "id",
          "type": "uint256"
        },
        {
          "internalType": "string",
          "name": "title",
          "type": "string"
        },
        {
          "internalType": "string",
          "name": "cover",
          "type": "string"
        },
        {
          "internalType": "uint256",
          "name": "votes",
          "type": "uint256"
        }
      ],
      "stateMutability": "view",
      "type": "function",
      "constant": true
    },
    {
      "inputs": [],
      "name": "moviesCount",
      "outputs": [
        {
          "internalType": "uint256",
          "name": "",
          "type": "uint256"
        }
      ],
      "stateMutability": "view",
      "type": "function",
      "constant": true
    },
    {
      "inputs": [
        {
          "internalType": "address",
          "name": "",
          "type": "address"
        }
      ],
      "name": "votes",
      "outputs": [
        {
          "internalType": "uint256",
          "name": "",
          "type": "uint256"
        }
      ],
      "stateMutability": "view",
      "type": "function",
      "constant": true
    },
    {
      "inputs": [
        {
          "internalType": "uint256",
          "name": "_movieID",
          "type": "uint256"
        }
      ],
      "name": "vote",
      "outputs": [],
      "stateMutability": "nonpayable",
      "type": "function"
    },
    {
      "inputs": [
        {
          "internalType": "string",
          "name": "_title",
          "type": "string"
        },
        {
          "internalType": "string",
          "name": "_cover",
          "type": "string"
        }
      ],
      "name": "addMovie",
      "outputs": [],
      "stateMutability": "nonpayable",
      "type": "function"
    }
  ],
  "bytecode": "0x608060405234801561001057600080fd5b506000600181905550610d1f806100286000396000f3fe608060405234801561001057600080fd5b50600436106100625760003560e01c80630121b93f1461006757806308bbbc9c14610083578063404ebf6c146100a1578063416cef3e146100d4578063967a8be4146100f2578063d8bff5a51461010e575b600080fd5b610081600480360381019061007c9190610541565b61013e565b005b61008b6102c0565b604051610098919061057d565b60405180910390f35b6100bb60048036038101906100b69190610541565b6102c6565b6040516100cb9493929190610631565b60405180910390f35b6100dc610406565b6040516100e9919061057d565b60405180910390f35b61010c600480360381019061010791906107b9565b61040b565b005b6101286004803603810190610123919061088f565b6104df565b604051610135919061057d565b60405180910390f35b6003600260003373ffffffffffffffffffffffffffffffffffffffff1673ffffffffffffffffffffffffffffffffffffffff16815260200190815260200160002054106101c0576040517f08c379a00000000000000000000000000000000000000000000000000000000081526004016101b790610908565b60405180910390fd5b6000811180156101d257506001548111155b610211576040517f08c379a000000000000000000000000000000000000000000000000000000000815260040161020890610974565b60405180910390fd5b600260003373ffffffffffffffffffffffffffffffffffffffff1673ffffffffffffffffffffffffffffffffffffffff1681526020019081526020016000206000815480929190610261906109c3565b9190505550600080828152602001908152602001600020600301600081548092919061028c906109c3565b91905055507f650d798f3862ff92822acb5de11a760351b122df0cf4e24ef80b0a7ff82e0eb960405160405180910390a150565b60015481565b60006020528060005260406000206000915090508060000154908060010180546102ef90610a3a565b80601f016020809104026020016040519081016040528092919081815260200182805461031b90610a3a565b80156103685780601f1061033d57610100808354040283529160200191610368565b820191906000526020600020905b81548152906001019060200180831161034b57829003601f168201915b50505050509080600201805461037d90610a3a565b80601f01602080910402602001604051908101604052809291908181526020018280546103a990610a3a565b80156103f65780601f106103cb576101008083540402835291602001916103f6565b820191906000526020600020905b8154815290600101906020018083116103d957829003601f168201915b5050505050908060030154905084565b600381565b6001600081548092919061041e906109c3565b91905055506000604051806080016040528060015481526020018481526020018381526020016000815250905080600080600154815260200190815260200160002060008201518160000155602082015181600101908161047f9190610c17565b5060408201518160020190816104959190610c17565b50606082015181600301559050507f7d86abd6b4195402762acf6a4927ce5cc913d7249e3668f8f3924983b210a3e060405160405180910390a16104da60015461013e565b505050565b60026020528060005260406000206000915090505481565b6000604051905090565b600080fd5b600080fd5b6000819050919050565b61051e8161050b565b811461052957600080fd5b50565b60008135905061053b81610515565b92915050565b60006020828403121561055757610556610501565b5b60006105658482850161052c565b91505092915050565b6105778161050b565b82525050565b6000602082019050610592600083018461056e565b92915050565b600081519050919050565b600082825260208201905092915050565b60005b838110156105d25780820151818401526020810190506105b7565b838111156105e1576000848401525b50505050565b6000601f19601f8301169050919050565b600061060382610598565b61060d81856105a3565b935061061d8185602086016105b4565b610626816105e7565b840191505092915050565b6000608082019050610646600083018761056e565b818103602083015261065881866105f8565b9050818103604083015261066c81856105f8565b905061067b606083018461056e565b95945050505050565b600080fd5b600080fd5b7f4e487b7100000000000000000000000000000000000000000000000000000000600052604160045260246000fd5b6106c6826105e7565b810181811067ffffffffffffffff821117156106e5576106e461068e565b5b80604052505050565b60006106f86104f7565b905061070482826106bd565b919050565b600067ffffffffffffffff8211156107245761072361068e565b5b61072d826105e7565b9050602081019050919050565b82818337600083830152505050565b600061075c61075784610709565b6106ee565b90508281526020810184848401111561077857610777610689565b5b61078384828561073a565b509392505050565b600082601f8301126107a05761079f610684565b5b81356107b0848260208601610749565b91505092915050565b600080604083850312156107d0576107cf610501565b5b600083013567ffffffffffffffff8111156107ee576107ed610506565b5b6107fa8582860161078b565b925050602083013567ffffffffffffffff81111561081b5761081a610506565b5b6108278582860161078b565b9150509250929050565b600073ffffffffffffffffffffffffffffffffffffffff82169050919050565b600061085c82610831565b9050919050565b61086c81610851565b811461087757600080fd5b50565b60008135905061088981610863565b92915050565b6000602082840312156108a5576108a4610501565b5b60006108b38482850161087a565b91505092915050565b7f566f74657220686173206e6f20766f746573206c6566742e0000000000000000600082015250565b60006108f26018836105a3565b91506108fd826108bc565b602082019050919050565b60006020820190508181036000830152610921816108e5565b9050919050565b7f4d6f766965204944206973206f7574206f662072616e67652e00000000000000600082015250565b600061095e6019836105a3565b915061096982610928565b602082019050919050565b6000602082019050818103600083015261098d81610951565b9050919050565b7f4e487b7100000000000000000000000000000000000000000000000000000000600052601160045260246000fd5b60006109ce8261050b565b91507fffffffffffffffffffffffffffffffffffffffffffffffffffffffffffffffff8203610a00576109ff610994565b5b600182019050919050565b7f4e487b7100000000000000000000000000000000000000000000000000000000600052602260045260246000fd5b60006002820490506001821680610a5257607f821691505b602082108103610a6557610a64610a0b565b5b50919050565b60008190508160005260206000209050919050565b60006020601f8301049050919050565b600082821b905092915050565b600060088302610acd7fffffffffffffffffffffffffffffffffffffffffffffffffffffffffffffffff82610a90565b610ad78683610a90565b95508019841693508086168417925050509392505050565b6000819050919050565b6000610b14610b0f610b0a8461050b565b610aef565b61050b565b9050919050565b6000819050919050565b610b2e83610af9565b610b42610b3a82610b1b565b848454610a9d565b825550505050565b600090565b610b57610b4a565b610b62818484610b25565b505050565b5b81811015610b8657610b7b600082610b4f565b600181019050610b68565b5050565b601f821115610bcb57610b9c81610a6b565b610ba584610a80565b81016020851015610bb4578190505b610bc8610bc085610a80565b830182610b67565b50505b505050565b600082821c905092915050565b6000610bee60001984600802610bd0565b1980831691505092915050565b6000610c078383610bdd565b9150826002028217905092915050565b610c2082610598565b67ffffffffffffffff811115610c3957610c3861068e565b5b610c438254610a3a565b610c4e828285610b8a565b600060209050601f831160018114610c815760008415610c6f578287015190505b610c798582610bfb565b865550610ce1565b601f198416610c8f86610a6b565b60005b82811015610cb757848901518255600182019150602085019450602081019050610c92565b86831015610cd45784890151610cd0601f891682610bdd565b8355505b6001600288020188555050505b50505050505056fea2646970667358221220de062f6dad45582e1ccb0ad1616fa8a67454c826422e08b62900964ca3765ae464736f6c634300080f0033",
  "immutableReferences": {},
  "source": "// SPDX-License-Identifier: MIT\npragma solidity >=0.4.22 <0.9.0;\n\ncontract Voting {\n  uint public constant MAX_VOTES_PER_VOTER = 3;\n\n  struct Movie {\n    uint id;\n    string title;\n    string cover;\n    uint votes;\n  }\n\n  event NewMovie ();\n  event Voted ();\n\n  mapping(uint => Movie) public movies;\n  uint public moviesCount;\n\n  mapping(address => uint) public votes;\n\n  constructor() {\n    moviesCount = 0;\n  }\n\n  function vote(uint _movieID) public {\n    require(votes[msg.sender] < MAX_VOTES_PER_VOTER, \"Voter has no votes left.\");\n    require(_movieID > 0 && _movieID <= moviesCount, \"Movie ID is out of range.\");\n\n    votes[msg.sender]++;\n    movies[_movieID].votes++;\n\n    emit Voted();\n  }\n\n  function addMovie(string memory _title, string memory _cover) public {\n    moviesCount++;\n\n    Movie memory movie = Movie(moviesCount, _title, _cover, 0);\n    movies[moviesCount] = movie;\n\n    emit NewMovie();\n    vote(moviesCount);\n  }\n}\n",
  "sourcePath": "C:\\ethereum\\truffle\\simplevote\\contracts\\Voting.sol",
  "compiler": {
    "name": "solc",
    "version": "0.8.15+commit.e14f2714.Emscripten.clang"
  },
  "schemaVersion": "3.4.8",
  "updatedAt": "2022-08-01T15:55:59.835Z",
  "networkType": "ethereum",
  "devdoc": {
    "kind": "dev",
    "methods": {},
    "version": 1
  },
  "userdoc": {
    "kind": "user",
    "methods": {},
    "version": 1
  }
}